{
  "contractName": "Calculator",
  "abi": [
    {
      "anonymous": false,
      "inputs": [
        {
          "indexed": true,
          "internalType": "uint256",
          "name": "result",
          "type": "uint256"
        }
      ],
      "name": "ValueChanged",
      "type": "event"
    },
    {
      "inputs": [],
      "name": "total",
      "outputs": [
        {
          "internalType": "uint256",
          "name": "",
          "type": "uint256"
        }
      ],
      "stateMutability": "view",
      "type": "function",
      "constant": true
    },
    {
      "inputs": [
        {
          "internalType": "uint256",
          "name": "a",
          "type": "uint256"
        },
        {
          "internalType": "uint256",
          "name": "b",
          "type": "uint256"
        }
      ],
      "name": "add",
      "outputs": [],
      "stateMutability": "nonpayable",
      "type": "function"
    },
    {
      "inputs": [
        {
          "internalType": "uint256",
          "name": "a",
          "type": "uint256"
        },
        {
          "internalType": "uint256",
          "name": "b",
          "type": "uint256"
        }
      ],
      "name": "sub",
      "outputs": [],
      "stateMutability": "nonpayable",
      "type": "function"
    },
    {
      "inputs": [
        {
          "internalType": "uint256",
          "name": "a",
          "type": "uint256"
        },
        {
          "internalType": "uint256",
          "name": "b",
          "type": "uint256"
        }
      ],
      "name": "mul",
      "outputs": [],
      "stateMutability": "nonpayable",
      "type": "function"
    },
    {
      "inputs": [
        {
          "internalType": "uint256",
          "name": "a",
          "type": "uint256"
        },
        {
          "internalType": "uint256",
          "name": "b",
          "type": "uint256"
        }
      ],
      "name": "div",
      "outputs": [],
      "stateMutability": "nonpayable",
      "type": "function"
    }
  ],
  "bytecode": "0x608060405234801561000f575f80fd5b506105618061001d5f395ff3fe608060405234801561000f575f80fd5b5060043610610055575f3560e01c80632ddbd13a14610059578063771602f714610077578063a391c15b14610093578063b67d77c5146100af578063c8a4ac9c146100cb575b5f80fd5b6100616100e7565b60405161006e9190610295565b60405180910390f35b610091600480360381019061008c91906102dc565b6100ec565b005b6100ad60048036038101906100a891906102dc565b61012f565b005b6100c960048036038101906100c491906102dc565b6101b4565b005b6100e560048036038101906100e091906102dc565b61023a565b005b5f5481565b80826100f89190610347565b5f819055505f547f93fe6d397c74fdf1402a8b72e47b68512f0510d7b98a4bc4cbdf6ac7108b3c5960405160405180910390a25050565b5f8103610171576040517f08c379a0000000000000000000000000000000000000000000000000000000008152600401610168906103d4565b60405180910390fd5b808261017d919061041f565b5f819055505f547f93fe6d397c74fdf1402a8b72e47b68512f0510d7b98a4bc4cbdf6ac7108b3c5960405160405180910390a25050565b808210156101f7576040517f08c379a00000000000000000000000000000000000000000000000000000000081526004016101ee90610499565b60405180910390fd5b808261020391906104b7565b5f819055505f547f93fe6d397c74fdf1402a8b72e47b68512f0510d7b98a4bc4cbdf6ac7108b3c5960405160405180910390a25050565b808261024691906104ea565b5f819055505f547f93fe6d397c74fdf1402a8b72e47b68512f0510d7b98a4bc4cbdf6ac7108b3c5960405160405180910390a25050565b5f819050919050565b61028f8161027d565b82525050565b5f6020820190506102a85f830184610286565b92915050565b5f80fd5b6102bb8161027d565b81146102c5575f80fd5b50565b5f813590506102d6816102b2565b92915050565b5f80604083850312156102f2576102f16102ae565b5b5f6102ff858286016102c8565b9250506020610310858286016102c8565b9150509250929050565b7f4e487b71000000000000000000000000000000000000000000000000000000005f52601160045260245ffd5b5f6103518261027d565b915061035c8361027d565b92508282019050808211156103745761037361031a565b5b92915050565b5f82825260208201905092915050565b7f4469766973696f6e206279207a65726f000000000000000000000000000000005f82015250565b5f6103be60108361037a565b91506103c98261038a565b602082019050919050565b5f6020820190508181035f8301526103eb816103b2565b9050919050565b7f4e487b71000000000000000000000000000000000000000000000000000000005f52601260045260245ffd5b5f6104298261027d565b91506104348361027d565b925082610444576104436103f2565b5b828204905092915050565b7f5375627472616374696f6e20756e646572666c6f7700000000000000000000005f82015250565b5f61048360158361037a565b915061048e8261044f565b602082019050919050565b5f6020820190508181035f8301526104b081610477565b9050919050565b5f6104c18261027d565b91506104cc8361027d565b92508282039050818111156104e4576104e361031a565b5b92915050565b5f6104f48261027d565b91506104ff8361027d565b925082820261050d8161027d565b915082820484148315176105245761052361031a565b5b509291505056fea26469706673582212202a1b46fad6c11ddde0ea7b987d818db54ada0fbefde1710287e20f647f10977764736f6c63430008150033",
  "immutableReferences": {},
  "source": "// SPDX-License-Identifier: MIT\r\npragma solidity ^0.8.0;\r\n\r\ncontract Calculator {\r\n    event ValueChanged(uint256 indexed  result);\r\n    uint256 public total;\r\n    function add(uint256 a, uint256 b) public {\r\n        total = a + b;\r\n        emit ValueChanged(total);\r\n    }\r\n\r\n    function sub(uint256 a, uint256 b) public {\r\n        require(a >= b, \"Subtraction underflow\");\r\n        total = a - b;\r\n        emit ValueChanged(total);\r\n    }\r\n\r\n    function mul(uint256 a, uint256 b) public {\r\n        total = a * b;\r\n        emit ValueChanged(total);\r\n    }\r\n\r\n    function div(uint256 a, uint256 b) public {\r\n        require(b != 0, \"Division by zero\");\r\n        total = a / b;\r\n        emit ValueChanged(total);\r\n    }\r\n}\r\n\r\n",
  "sourcePath": "/home/linux/nft-project/cal/contracts/calculator.sol",
  "compiler": {
    "name": "solc",
    "version": "0.8.21+commit.d9974bed.Emscripten.clang"
  },
  "schemaVersion": "3.4.16",
  "updatedAt": "2024-06-26T16:54:04.865Z",
  "networkType": "ethereum",
  "devdoc": {
    "kind": "dev",
    "methods": {},
    "version": 1
  },
  "userdoc": {
    "kind": "user",
    "methods": {},
    "version": 1
  }
}